:1000000000308A00E1280000F801F901F701FA0147
:100010004D08031D0E284C08031928281030CE0067
:100020000310CA0DCB0DF70DFA0D4D087A02031D12
:100030001B284C087702031C24284C08F702031CD9
:10004000FA034D08FA020314F80DF90DCE0B10282F
:1000500008000330CB02031C37284B308400831385
:1000600000080319372835283528800B3428080064
:100070004908CB004808CA000330CD00E830CC0066
:1000800004207808AB004908CB004808CA000330B8
:10009000CD00E830CC0004207708C8007A08C900F9
:1000A0004908CB004808CA00CD016430CC000420C8
:1000B0007808AC004908CB004808CA00CD0164307C
:1000C000CC0004207708C8007A08C9004908CB0092
:1000D0004808CA00CD010A30CC0004207808AD00E1
:1000E0004908CB004808CA00CD010A30CC000420E2
:1000F0007708AE000030C50083168701FD308312FB
:10010000870020302B07840083130008CA00831661
:10011000880183124A0888000230CA009530CB005B
:100120002920CA0B8E280030C50083168701FB30BA
:100130008312870020302C07840083130008CA0034
:100140008316880183124A0888000230CA0095305D
:10015000CB002920CA0BA7280030C50083168701D1
:10016000F7308312870020302D07840083130008A6
:10017000CA008316880183124A0888000230CA0028
:100180009530CB002920CA0BC0280030C50083164B
:100190008701EF308312870020302E0784008313FD
:1001A0000008CA008316880183124A0888000230BA
:1001B000CA009530CB002920CA0BD9288A110A120F
:1001C000552903081F398300FF30C5008316031724
:1001D0000908C039890003131F129F12003003174A
:1001E0008800831287018801890183133F3003133C
:1001F000A0000630A1005B30A2004F30A3006630A3
:10020000A4006D30A5007D30A6000730A7007F3028
:10021000A8006F30A900B101B2015730B30004301B
:10022000B400AE30B5000830B6000530B7000D3070
:10023000B8005C30B9001130BA00B330BB001530E3
:10024000BC000A30BD001A30BE006130BF001E3055
:10025000C000B830C1002230C2000F30C3002730C8
:10026000C400AA010030C50083168701FF30831245
:100270008700B001AF013008023C031C5929031D5F
:1002800045292F089A3C031C592903102A0D313E99
:1002900084008313840A0008C70084030008C60092
:1002A0004708C9004608C8003828AF0A0319B00A31
:1002B0003B29AA0A2A08093C031CAA013929630020
:04400E00E22FFF3F5F
:00000001FF
;PIC16F887
;CRC=403B  CREATED="28-Sep-23 07:37"
