:1000000000308A0035280000FF00030E8301A100A4
:100010000A08A0008A010408A2007708A300780853
:10002000A4007908A5007A08A600831383120B1E8A
:100030001B288B182C28220884002308F70024088A
:10004000F8002508F9002608FA0020088A00210E89
:100050008300FF0E7F0E09008A110A122F2801303B
:10006000A7068B108A110A121B2803081F39830068
:10007000831603170908C039890003131F129F1242
:1000800000300317880083128701880189018313D8
:100090000030831603138800C03083128B040B16C4
:1000A0008316011383122710271C08102718081421
:0400B000542863006D
:04400E00E22FFF3F5F
:00000001FF
;PIC16F887
;CRC=232F  CREATED="28-Sep-23 08:04"
